{
  "_format": "hh-sol-artifact-1",
  "contractName": "Time_lock",
  "sourceName": "contracts/Time_Lock.sol",
  "abi": [
    {
      "inputs": [
        {
          "internalType": "address",
          "name": "_user",
          "type": "address"
        },
        {
          "internalType": "uint256",
          "name": "value",
          "type": "uint256"
        },
        {
          "internalType": "uint256",
          "name": "time",
          "type": "uint256"
        }
      ],
      "name": "add_users",
      "outputs": [],
      "stateMutability": "payable",
      "type": "function"
    },
    {
      "inputs": [
        {
          "internalType": "address",
          "name": "user_addr",
          "type": "address"
        }
      ],
      "name": "check_time",
      "outputs": [
        {
          "internalType": "uint256",
          "name": "",
          "type": "uint256"
        }
      ],
      "stateMutability": "view",
      "type": "function"
    },
    {
      "inputs": [
        {
          "internalType": "address",
          "name": "",
          "type": "address"
        }
      ],
      "name": "user",
      "outputs": [
        {
          "internalType": "uint256",
          "name": "_time",
          "type": "uint256"
        },
        {
          "internalType": "uint256",
          "name": "_amount",
          "type": "uint256"
        }
      ],
      "stateMutability": "view",
      "type": "function"
    },
    {
      "inputs": [
        {
          "internalType": "address",
          "name": "user_addr",
          "type": "address"
        }
      ],
      "name": "user_info",
      "outputs": [
        {
          "components": [
            {
              "internalType": "uint256",
              "name": "_time",
              "type": "uint256"
            },
            {
              "internalType": "uint256",
              "name": "_amount",
              "type": "uint256"
            }
          ],
          "internalType": "struct Time_lock.users",
          "name": "",
          "type": "tuple"
        }
      ],
      "stateMutability": "view",
      "type": "function"
    },
    {
      "inputs": [
        {
          "internalType": "address",
          "name": "user_addr",
          "type": "address"
        }
      ],
      "name": "with_drawal",
      "outputs": [],
      "stateMutability": "payable",
      "type": "function"
    },
    {
      "stateMutability": "payable",
      "type": "receive"
    }
  ],
  "bytecode": "0x608060405234801561001057600080fd5b506109d5806100206000396000f3fe60806040526004361061004e5760003560e01c806321058d2a1461005a57806381e7e20e146100975780639965e15e146100d5578063b28be8a114610112578063f5534a7b1461012e57610055565b3661005557005b600080fd5b34801561006657600080fd5b50610081600480360381019061007c91906106e7565b61014a565b60405161008e919061075c565b60405180910390f35b3480156100a357600080fd5b506100be60048036038101906100b991906106e7565b6101ee565b6040516100cc929190610786565b60405180910390f35b3480156100e157600080fd5b506100fc60048036038101906100f791906106e7565b610212565b60405161010991906107af565b60405180910390f35b61012c600480360381019061012791906107f6565b610373565b005b610148600480360381019061014391906106e7565b610472565b005b61015261066a565b8173ffffffffffffffffffffffffffffffffffffffff163373ffffffffffffffffffffffffffffffffffffffff161461018a57600080fd5b6000808373ffffffffffffffffffffffffffffffffffffffff1673ffffffffffffffffffffffffffffffffffffffff168152602001908152602001600020604051806040016040529081600082015481526020016001820154815250509050919050565b60006020528060005260406000206000915090508060000154908060010154905082565b60008173ffffffffffffffffffffffffffffffffffffffff163373ffffffffffffffffffffffffffffffffffffffff1614610282576040517f08c379a0000000000000000000000000000000000000000000000000000000008152600401610279906108a6565b60405180910390fd5b6000808373ffffffffffffffffffffffffffffffffffffffff1673ffffffffffffffffffffffffffffffffffffffff16815260200190815260200160002060000154421061031e57426000808473ffffffffffffffffffffffffffffffffffffffff1673ffffffffffffffffffffffffffffffffffffffff1681526020019081526020016000206000015461031791906108f5565b905061036e565b426000808473ffffffffffffffffffffffffffffffffffffffff1673ffffffffffffffffffffffffffffffffffffffff1681526020019081526020016000206000015461036b91906108f5565b90505b919050565b8273ffffffffffffffffffffffffffffffffffffffff163373ffffffffffffffffffffffffffffffffffffffff161480156103af575060003414155b80156103cd5750670de0b6b3a7640000826103ca9190610929565b34145b6103d657600080fd5b816000808573ffffffffffffffffffffffffffffffffffffffff1673ffffffffffffffffffffffffffffffffffffffff168152602001908152602001600020600101819055508042610428919061096b565b6000808573ffffffffffffffffffffffffffffffffffffffff1673ffffffffffffffffffffffffffffffffffffffff16815260200190815260200160002060000181905550505050565b8073ffffffffffffffffffffffffffffffffffffffff163373ffffffffffffffffffffffffffffffffffffffff161480156104ef575060008060008373ffffffffffffffffffffffffffffffffffffffff1673ffffffffffffffffffffffffffffffffffffffff1681526020019081526020016000206001015414155b801561053c57506000808273ffffffffffffffffffffffffffffffffffffffff1673ffffffffffffffffffffffffffffffffffffffff168152602001908152602001600020600001544210155b61057b576040517f08c379a0000000000000000000000000000000000000000000000000000000008152600401610572906108a6565b60405180910390fd5b8073ffffffffffffffffffffffffffffffffffffffff166108fc670de0b6b3a76400006000808573ffffffffffffffffffffffffffffffffffffffff1673ffffffffffffffffffffffffffffffffffffffff168152602001908152602001600020600101546105ea9190610929565b9081150290604051600060405180830381858888f19350505050158015610615573d6000803e3d6000fd5b506000808273ffffffffffffffffffffffffffffffffffffffff1673ffffffffffffffffffffffffffffffffffffffff1681526020019081526020016000206000808201600090556001820160009055505050565b604051806040016040528060008152602001600081525090565b600080fd5b600073ffffffffffffffffffffffffffffffffffffffff82169050919050565b60006106b482610689565b9050919050565b6106c4816106a9565b81146106cf57600080fd5b50565b6000813590506106e1816106bb565b92915050565b6000602082840312156106fd576106fc610684565b5b600061070b848285016106d2565b91505092915050565b6000819050919050565b61072781610714565b82525050565b604082016000820151610743600085018261071e565b506020820151610756602085018261071e565b50505050565b6000604082019050610771600083018461072d565b92915050565b61078081610714565b82525050565b600060408201905061079b6000830185610777565b6107a86020830184610777565b9392505050565b60006020820190506107c46000830184610777565b92915050565b6107d381610714565b81146107de57600080fd5b50565b6000813590506107f0816107ca565b92915050565b60008060006060848603121561080f5761080e610684565b5b600061081d868287016106d2565b935050602061082e868287016107e1565b925050604061083f868287016107e1565b9150509250925092565b600082825260208201905092915050565b7f726571756972656d656e7420646f65736e2774206d6565740000000000000000600082015250565b6000610890601883610849565b915061089b8261085a565b602082019050919050565b600060208201905081810360008301526108bf81610883565b9050919050565b7f4e487b7100000000000000000000000000000000000000000000000000000000600052601160045260246000fd5b600061090082610714565b915061090b83610714565b9250828203905081811115610923576109226108c6565b5b92915050565b600061093482610714565b915061093f83610714565b925082820261094d81610714565b91508282048414831517610964576109636108c6565b5b5092915050565b600061097682610714565b915061098183610714565b9250828201905080821115610999576109986108c6565b5b9291505056fea2646970667358221220ed7a5f903623ada07a5c427f8edc75acfcd99248ce13d0f302cd5402e819989c64736f6c63430008110033",
  "linkReferences": {},
  "deployedLinkReferences": {}
}